:100000000A128A11EC2F00308A000408840A820741
:10001000003420342D3443346934723463347534FD
:100020006934743420344434693467346534733447
:100030007434003420342034523454344334203463
:100040007734693474346834203450344934433458
:100050000034543449344D3445343A342034003477
:0E00600044344134543445343A3420340034AE
:100080000A128A1173200A128A118316031311149B
:1000900008000A128A1173200A128A1183160313A8
:1000A000111508000A128A1173200A128A1183128C
:1000B0000313200893000800123400340534003480
:1000C000063400340A3400343734003400300A1265
:1000D0008A1193200A128A1101300A128A11932080
:1000E0000A128A1108008316031311081F39031D11
:1000F0007A287B28732814197E287F287328080003
:100100007E088A007F0882000A128A1180200A1263
:100110008A118000840A04087D0603190034FF0A4E
:100120000319FE0A8428F3008312031308117308CD
:100130000A128A11AD200A128A118312031388153C
:100140001A30F200F830F100F10BA428F20BA428C9
:1001500000008312031388110800F000701CB128FE
:10016000B228B628831203130816B9288312031382
:100170000812F01CBC28BD28BF288816C028881289
:10018000701DC328C428C6280817C7280813F01DE7
:10019000CA28CB28CD288817CE2888130800FB0052
:1001A000F901FA01E62879087B0784000A128A110E
:1001B00003200A128A110A128A1134230A128A11A0
:1001C0000130F9070318FA0A0030FA0779087B07AB
:1001D00084000A128A1103200A128A11003A031DB0
:1001E000F228F328D3280800F401F501701CF9283F
:1001F000FA2800297208F4070318F50A7308F507AE
:1002000001300310F20DF30DFF3E031D01290130F3
:100210000310F10CF00CFF3E031D08297008710457
:10022000031D13291429F6287508F1007408F0003D
:1002300008000F307605F80000307705F900760EDB
:100240000F39F000770EF039F004770E0F39F10016
:10025000F030F11D0030F1040A30F2000030F300FC
:100260000A128A11F4200A128A1178087007F6001F
:1002700079080318790A7107F70008000A128A1131
:1002800073200A128A118316031391150A128A1118
:1002900073200A128A11831203131308F200F30168
:1002A0007208F4007308F5000A128A1173200A120A
:1002B0008A117008710403195E29622983160313D9
:1002C0009116652983160313911211167508F10012
:1002D0007408F00008000A30F0000030F1007A08DD
:1002E000F3007908F2000A128A1193230A128A1184
:1002F0007008FB007108FC00FB0EFC0EF030FC05E2
:100300007B080F39FC04F030FB050A30F0000030A8
:10031000F1007A08F3007908F2000A128A11DB2250
:100320000A128A1170087B07F90071080318710A14
:100330007C07FA0008000030FC000030FB000030B1
:10034000FA000030F900701CA629A729BE297408FC
:10035000F907750803110318013E0319B029FA07BC
:10036000760803110318013E0319B729FB07770824
:1003700003110318013E0319BE29FC070130F800E0
:100380000310F40DF50DF60DF70DF80BC029013033
:100390000310F30CF20CF10CF00CFF3E031DC82906
:1003A0007308720471047004031DD729D829A32986
:1003B0007C08F3007B08F2007A08F1007908F0006D
:1003C0000800F7007703031DE629E7290A2A7408C5
:1003D0007F3EF5007508FA007A08F5000430031036
:1003E000F50CFF3E031DEF297508F6007608F800AE
:1003F0007A080F39F5007508F90078080A128A1191
:1004000093200A128A1179080A128A1193200A127B
:100410008A11322A02307706031D0F2A102A322A47
:100420007408BF3EF5007508FA007A08F50004303C
:100430000310F50CFF3E031D182A7508F600760818
:10044000F8007A080F39F5007508F90078080A12E3
:100450008A1193200A128A1179080A128A119320AC
:100460000A128A110800831603138715071628300D
:100470008312031394008316031391018312031351
:100480002D08B1002E08B2002F08B3003008B400C8
:1004900002300310B10DB20DB30DB40DFF3E031DBC
:1004A000492A3408F3003308F2003208F100310819
:1004B000F0000030F7000030F6000030F500643046
:1004C000F4000A128A119B210A128A1173088312FE
:1004D0000313A3007208A2007108A1007008A00015
:1004E0000130A7003130A6002D30A5000030A40057
:1004F0000A128A11FA230A128A118312031320089E
:10050000FF3E8316031393009401080000300A1283
:100510008A11AD200A128A1103300A128A1193201F
:100520000A128A112130F5007630F400F40B962A75
:10053000F50B962A000003300A128A1193200A1242
:100540008A114830F5006C30F400F40BA52AF50B45
:10055000A52A000003300A128A1193200A128A1178
:1005600002300A128A1193200A128A1102300A12EA
:100570008A1193200A128A1108300A128A119320D4
:100580000A128A1100300A128A1193200A128A1163
:100590000C300A128A1193200A128A1100300A12B2
:1005A0008A1193200A128A1106300A128A119320A6
:1005B0000A128A110800F601F31FDF2AE02AE72A4F
:1005C000F209F309F20A0319F30AF601F60AF11F18
:1005D000EA2AEB2AF02AF009F109F00A0319F10AD4
:1005E000700871040319F52AF62A252BF501F50A7E
:1005F000042B01300310F00DF10DFF3E031DFA2A0C
:100600000130F4007408F507F11F072B082BF92AB5
:1006100071087302031D0E2B70087202031C112B4C
:10062000122B182B7008F2027108031CF303F3025B
:1006300001300310F10CF00CFF3E031D192B0130AB
:10064000F502031D242B252B082B76080319292BD3
:100650002A2B2F2BF209F309F20A0319F30A730864
:10066000F1007208F0000800F40074080F39F1007E
:100670007108F2007408F039F1007108F300831278
:10068000031308157308F10004300310F10CFF3E4A
:10069000031D452B71080A128A11AD200A128A1116
:1006A0008312031388153330F5008230F600000002
:1006B000FF30F5070318F60AFF30F6077608803A90
:1006C000FF0080307F02031D672B01307502031C81
:1006D0006A2B6B2B572B83120313881172080A1293
:1006E0008A11AD200A128A11831203138815333040
:1006F000F7008230F8000000FF30F7070318F80A0F
:10070000FF30F8077808803AFF0080307F02031D31
:100710008B2B01307702031C8E2B8F2B7B2B8312AC
:10072000031388110800F601F11F972B982B9F2BBC
:10073000F009F109F00A0319F10AF601F60AF31FAC
:10074000A22BA32BAC2BF209F309F20A0319F30A2B
:100750000130F4007408F606F701F801700871041E
:100760000319B32BB42BEB2BF501F50AC22B013087
:100770000310F00DF10DFF3E031DB82B0130F40006
:100780007408F507F11FC52BC62BB72B01300310DA
:10079000F70DF80DFF3E031DC72B71087302031DF3
:1007A000D32B70087202031CD62BD72BDE2B7008BC
:1007B000F2027108031CF303F302771401300310F3
:1007C000F10CF00CFF3E031DDF2B0130F502031D81
:1007D000EA2BEB2BC62B76080319EF2BF02BF52B0E
:1007E000F709F809F70A0319F80A7808F1007708F9
:1007F000F0000800003083120313AB000030AA00A1
:100800000030A9000030A80023082204210420049D
:1008100003190B2C0C2C592CAC01AC0A1C2C0130EC
:10082000FD000310A00DA10DA20DA30DFD0B112CB9
:100830000130FD007D08AC07A31F1F2C202C0F2CBE
:100840000130FD000310A80DA90DAA0DAB0DFD0B85
:10085000222C23082702031D372C22082602031D01
:10086000372C21082502031D372C20082402031CE5
:100870003A2C3B2C4A2C2008A4022108031C210FEF
:10088000A5022208031C220FA6022308031C230F23
:10089000A702281401300310A30CA20CA10CA00C79
:1008A000FF3E031D4B2C0130AC02031D582C592C6C
:1008B000202C2B08A3002A08A2002908A100280840
:1008C000A00008000A128A1140200A128A11D030B2
:1008D00083120313A0000030A1000A128A115220D3
:1008E0000A128A11003083120313A000A1000A1219
:1008F0008A1152200A128A11831203134F08FA0038
:100900004E08F9000A128A116B210A128A117A081C
:1009100083120313A1007908A0000A128A11522041
:100920000A128A11831203134D08FA004C08F900C9
:100930000A128A116B210A128A117A088312031390
:10094000A1007908A0000A128A1152200A128A1105
:10095000831203134B08FA004A08F9000A128A119D
:100960006B210A128A117A0883120313A1007908F5
:10097000A0000A128A1152200A128A110130831231
:100980000313A0000030A1000A128A1152200A129B
:100990008A11831203134908FA004808F9000A1261
:1009A0008A116B210A128A117A0883120313A1009B
:1009B0007908A0000A128A1152200A128A118312A1
:1009C00003134708FA004608F9000A128A116B213E
:1009D0000A128A117A0883120313A1007908A00071
:1009E0000A128A1152200A128A118312031345082F
:1009F000FA004408F9000A128A116B210A128A11BE
:100A00007A0883120313A1007908A0000A128A1140
:100A100052200A128A110A128A1149200A128A11D6
:100A200008000A128A1140200A128A11D03083125B
:100A30000313A0000030A1000A128A1152200A12EA
:100A40008A11003083120313A000A1000A128A1138
:100A500052200A128A110A128A1149200A128A1196
:100A60000A128A1140200A128A11D130831203130C
:100A7000A0000030A1000A128A1152200A128A1125
:100A80000130F0000030F1000A128A113E210A12F2
:100A90008A117108F7007008F6000A128A111921EC
:100AA0000A128A11770883120313CF007608CE004A
:100AB0000130F0000030F1000A128A113E210A12C2
:100AC0008A117108F7007008F6000A128A111921BC
:100AD0000A128A11770883120313CD007608CC001E
:100AE0000130F0000030F1000A128A113E210A1292
:100AF0008A117108F7007008F6000A128A1119218C
:100B00000A128A11770883120313CB007608CA00F1
:100B10000130F0000030F1000A128A113E210A1261
:100B20008A110130F0000030F1000A128A113E21D2
:100B30000A128A117108F7007008F6000A128A1169
:100B400019210A128A11770883120313C900760843
:100B5000C8000130F0000030F1000A128A113E2175
:100B60000A128A117108F7007008F6000A128A1139
:100B700019210A128A11770883120313C700760815
:100B8000C6000130F0000030F1000A128A113E2147
:100B90000A128A117108F7007008F6000A128A1109
:100BA00019210A128A11770883120313C5007608E7
:100BB000C4000A128A1149200A128A110A128A11E3
:100BC00040200A128A11D13083120313A000003092
:100BD000A1000A128A1152200A128A110130F00073
:100BE0000030F1000A128A113E210A128A110A12FB
:100BF0008A1149200A128A110800831603138801FA
:100C00000A128A1186220A128A11003083120313F3
:100C1000B0000030AF000030AE006430AD000A120A
:100C20008A1133220A128A110A128A1162240A12C4
:100C30008A110A128A1166200A128A11F401F40A32
:100C400001300A128A11E1210A128A1112300A12A5
:100C50008A11CF200A128A11F401F40A02300A1212
:100C60008A11E1210A128A1101300A128A11CF2059
:100C70000A128A11273083120313B7000D30B60011
:100C80002530B500B50B422EB60B422EB70B422EC7
:100C9000492E0A128A1111250A128A110A30F0000F
:100CA0000030F100831203134F08F3004E08F200E6
:100CB0000A128A11DB220A128A11700883120313A6
:100CC000B5003508B8000A30F0000030F1004F08D8
:100CD000F3004E08F2000A128A1193230A128A11B5
:100CE000700883120313B5003508B9000A30F0000C
:100CF0000030F1004D08F3004C08F2000A128A118E
:100D0000DB220A128A11700883120313B50035081A
:100D1000BA000A30F0000030F1004D08F3004C0832
:100D2000F2000A128A1193230A128A1170088312A0
:100D30000313B5003508BB000A30F0000030F100A5
:100D40004B08F3004A08F2000A128A11DB220A1249
:100D50008A11700883120313B5003508BC000A30ED
:100D6000F0000030F1004B08F3004A08F2000A12CC
:100D70008A1193230A128A11700883120313B50093
:100D80003508BD000A30F0000030F1004908F300DA
:100D90004808F2000A128A11DB220A128A1170082E
:100DA00083120313B5003508BE000A30F00000308E
:100DB000F1004908F3004808F2000A128A1193234F
:100DC0000A128A11700883120313B5003508BF0098
:100DD0000A30F0000030F1004708F3004608F20046
:100DE0000A128A11DB220A128A1170088312031375
:100DF000B5003508C0000A30F0000030F1004708A7
:100E0000F3004608F2000A128A1193230A128A118B
:100E1000700883120313B5003508C1000A30F000D2
:100E20000030F1004508F3004408F2000A128A116C
:100E3000DB220A128A11700883120313B5003508E9
:100E4000C2000A30F0000030F1004508F300440809
:100E5000F2000A128A1193230A128A11700883126F
:100E60000313B5003508C3000A128A1166200A125E
:100E70008A11F401F40A01300A128A11E1210A12DE
:100E80008A1121300A128A11CF200A128A11831284
:100E900003133D08303E0A128A1134230A128A11C4
:100EA000831203133C08303E0A128A1134230A12BB
:100EB0008A113A300A128A1134230A128A118312D3
:100EC00003133B08303E0A128A1134230A128A1196
:100ED000831203133A08303E0A128A1134230A128D
:100EE0008A113A300A128A1134230A128A118312A3
:100EF00003133908303E0A128A1134230A128A1168
:100F0000831203133808303E0A128A1134230A125E
:100F10008A11F401F40A02300A128A11E1210A123C
:100F20008A1128300A128A11CF200A128A118312DC
:100F300003133F08303E0A128A1134230A128A1121
:100F4000831203133E08303E0A128A1134230A1218
:100F50008A113A300A128A1134230A128A11831232
:100F600003134108303E0A128A1134230A128A11EF
:100F7000831203134008303E0A128A1134230A12E6
:100F80008A113A300A128A1134230A128A11831202
:100F900003134308303E0A128A1134230A128A11BD
:100FA000831203134208303E0A128A1134230A12B4
:100FB0008A110D3083120313B700AF30B600B5307D
:100FC000B500B50BE12FB60BE12FB70BE12FE82FE2
:100FD000492E0A128A11002883134E30FD0000307A
:100FE000FE005C30FF00443084000A128A11842025
:100FF0000A128A11CE01CF0183010A128A11FD2D36
:08400000FF3FFF3FFF3FFF3FC0
:02400E00723FFF
:00000001FF
