:1000000003308A00522B0000201000004D30840085
:1000100083130008031919280230F800F701F70BC1
:100020000F28F80B0E289730F700F70B1528800BD8
:100030000C28080054181E2888111F288815D41869
:100040002328081224280816541928288812292839
:100050008816D4192D2808132E2808170000081513
:100060003128322808110800D501003088190130E4
:10007000D5040030081A0130F7000310F70D770897
:10008000D5040030881A0130F700F70DF70DFC3069
:10009000F7057708D5040030081B0130F700F70D8D
:1000A000F70DF70DF830F7057708D5045508F80077
:1000B0000800831608110810881083120810831690
:1000C000881508168816081783128814000008156A
:1000D000000034207808D4000811000008157028AA
:1000E00034207808D300081183168811081288126A
:1000F00008138312540EF700F030F7057708530405
:10010000F8007808D300D31B5F28D108031D8A2884
:1001100008108B2808140000881000000811520EE7
:10012000D3000F30D3055308D4001A2052080F39DA
:10013000D300D4001A2008002830C7000C30C800B3
:100140000130C9000630CA00081108108810831653
:1001500088110812881208130811081088100F302F
:100160008312CD0006200130C6004608033C031C64
:10017000C1280330D4001A200530CD000620C60A5D
:10018000B5280230D4001A200530CD000620C60163
:100190004608033C031CD8284730460784008313D5
:1001A0000008CB00D1014B08D2005920C60AC8284C
:1001B0008A110A12AA2B4E0BDE28E1284030CF000C
:1001C000E228CF0101304D02CF074F088038D00020
:1001D000D1015008D200592008004C08073A0319F1
:1001E000FB280B3A03190029063A03190829023A99
:1001F00003190E2913290130CD00CE00DB20182968
:10020000D1010130D20059200230CD00062018293A
:100210000130CD000230CE00DB201829D101103092
:10022000D200592018290130D1004C08D2005920A1
:1002300008004C08F8014B02031821294B08F7006D
:100240002D29F7010830CD00CB0DF70D4C087702B2
:100250000318F700F80DCD0B242908007808490889
:10026000CB006430CC0019217708C9007808303001
:10027000031D4129CA1C4829CA1948294A1A203095
:100280004429CA114A124A14F8077808CC00ED2014
:100290004908CB000A30CC0019217708C90078083A
:1002A0003030031D5929CA195D294A1C5D294A1A93
:1002B0002030F8077808CC00ED203030C907490815
:1002C000CC00ED200800C9014908093C031C77292E
:1002D000831606148312061C77298316861483124C
:1002E000861C7729C90A1930CD0006206429080028
:1002F000831606148312061C78298316861483122B
:100300008618BA29C60ABF08031D8A294608173C61
:10031000031CC6013F0B902946083B3C031CC60149
:100320003F08023C031D9A2946081F3C03189A29DE
:100330000130C6003F08033C031DA42946080C3CBD
:100340000318A4290130C6003F08043C031DAC2952
:100350004608633C031CC6014708CD004808CE0090
:10036000DB204608C9000130CA002E21C830CD006C
:1003700006207D294708CD004808CE00DB20043048
:1003800003178D0000308F0003130B08C9008B1377
:10039000831603178C170C1400000000831203133C
:1003A000C91B8B1703170C087F390319172A03136E
:1003B000C90003170D080313CA0003170F0803131E
:1003C000CB004908CC00ED204A0803178D00031329
:1003D0004B0803178F0003130B08CC008B138316F5
:1003E00003178C170C140000000083120313CC1B9E
:1003F0008B1703170C0D0E0D7F390319172A0313E2
:10040000C90003170D080313CA0003170F080313CD
:10041000CB004908CC00ED204A0803178D000313D8
:100420004B0803178F008D0A03198F0AC429031381
:1004300063214708CD004808CE00DB204608C900EC
:100440000130CA002E216321831606148312061878
:100450002D2ABF0A4608F8002E2A7D290800941389
:100460008C11460893000230941B3D2A8C1D362ABD
:1004700000308316111B01308312F800080014139A
:10048000831691159119422A77189112771C9116AB
:100490001116111A492A83121308F8000800F701EF
:1004A000F801480803104918F707F70CF80CC918A9
:1004B000F707F70CF80C4919F707F70CF80CC919EE
:1004C000F707F70CF80C491AF707F70CF80CC91ADC
:1004D000F707F70CF80C491BF707F70CF80CC91BCA
:1004E000F707F70CF80C080080080319892AC701E0
:1004F0000408C6004710831B47140008CC00ED20F9
:1005000046088400831347188317840A0319850A51
:10051000742A0800400EF7000F30F7057708C7006F
:10052000C8000A30C9004F2240080F397807C000C0
:10053000410EF7000F30F7057708C700C8000A30F2
:10054000C9004F2241080F397807C100420EF70059
:100550000F30F7057708C700C8000A30C9004F22DE
:1005600042080F397807C200430EF7000F30F70535
:100570007708C700C8000A30C9004F2243080F3966
:100580007807C300440EF7000F30F7057708C7005F
:10059000C8000A30C9004F2244080F397807C40048
:1005A000450EF7000F30F7057708C700C8000A307E
:1005B000C9004F2245080F397807C5004008CB0015
:1005C0000A30CC00192130307707AD004008CB004D
:1005D0000A30CC00192130307807AC004108CB003C
:1005E0000A30CC00192130307707AA004108CB002F
:1005F0000A30CC00192130307807A9004208CB001E
:100600000A30CC00192130307707A7004208CB0010
:100610000A30CC00192130307807A6004508CB00FD
:100620000A30CC00192130307707BD004508CB00D7
:100630000A30CC00192130307807BC004408CB00C8
:100640000A30CC00192130307707B8004408CB00BD
:100650000A30CC00192130307807B7004308CB00AE
:100660000A30CC00192130307707B5004308CB00A1
:100670000A30CC00192130307807B4000130CD00A9
:10068000CE00DB2021308400831374220130CD00A2
:100690000230CE00DB202F308400831374228A11B5
:1006A0000A128E2C03081F398300FF30A000A0150A
:1006B00020088316870083122016200883168700DF
:1006C0001330930028308312940083169417141368
:1006D0001F149F141F159F1107309C008313543063
:1006E0008312A1004930A2004D30A3004530A40080
:1006F0003A30A5002030A600A7003A30A8002030EC
:10070000A900AA003A30AB002030AC00AD00AE0129
:100710004430AF004130B0005430B1004530B20039
:100720003A30B3002030B400B5002F30B60020308E
:10073000B700B8002F30B9003230BA003030BB00FB
:100740002030BC00BD00BE0100308316880081133C
:1007500083129C280C30CC00ED20831606148312E3
:100760000618562CBF014208C6000630C7000130EB
:10077000C80078217808C2004108C6000930C700C7
:100780000130C80078217808C1004308C60006304F
:10079000C7000230C80078217808C3004408C600AA
:1007A0000930C7000230C80078217808C400450825
:1007B000C6000E30C7000230C80078217808C50096
:1007C0004108CB000A30CC001921780EC600F03069
:1007D000C6054108CB000A30CC001921770846072E
:1007E000C1004208CB000A30CC001921780EC600A7
:1007F000F030C6054208CB000A30CC00192177083A
:100800004607C2004308CB000A30CC001921780EFD
:10081000C600F030C6054308CB000A30CC001921D1
:1008200077084607C3004408CB000A30CC001921E2
:10083000780EC600F030C6054408CB000A30CC0064
:10084000192177084607C4004508CB000A30CC00C0
:100850001921780EC600F030C6054508CB000A30D5
:10086000CC00192177084607C5008316111411180A
:10087000372CD0308312C6002F22C6012F22C6018A
:100880002F224108C6002F224208C6002F22013025
:10089000C6002F224308C6002F224408C6002F227C
:1008A0004508C6002F22C830CD00062083169114BB
:1008B0009118582CD0308312C6002F22C6012F2247
:1008C000831691149118622CD1308312C6002F2206
:1008D0000130F7003F227808C0000130F7003F22C6
:1008E0007808C1000130F7003F227808C2000130CB
:1008F000F7003F220130F7003F227808C3000130A3
:10090000F7003F227808C400F7013F227808C500AD
:100910008316111511198A2C83128A2A3230CD00C0
:060920000620AD2B630070
:02400E00723FFF
:00000001FF
;PIC16F877A
;CRC=2B4C  CREATED="07-Aug-22 17:34"
