:100000000A128A11EE2F00308A000408840A82073F
:10001000003453344D344134523454342034493450
:1000200052345234493447344134543449344F34CF
:100030004E34003420342034543455344C34493454
:10004000503420344634413452344D34203420343A
:100050000034543449344D3445343A342034003477
:0E00600044344134543445343A3420340034AE
:100080000A128A1175200A128A1183160313111499
:1000900008000A128A1175200A128A1183160313A6
:1000A000111508000A128A1175200A128A1183128A
:1000B000031320089300080016340034073400347A
:1000C000193400340C3400340C3400340C34003453
:1000D00000300A128A1195200A128A1101300A1280
:1000E0008A1195200A128A11080083160313110839
:1000F0001F39031D7C287D28752814198028812824
:10010000752808007E088A007F0882000A128A117A
:1001100082200A128A118000840A04087D060319CD
:100120000034FF0A0319FE0A8628F3008312031322
:10013000081173080A128A11AF200A128A11831259
:10014000031388151A30F200F830F100F10BA628DD
:10015000F20BA62800008312031388110800F00098
:10016000701CB328B428B828831203130816BB28C0
:10017000831203130812F01CBE28BF28C12888165A
:10018000C2288812701DC528C628C8280817C92883
:100190000813F01DCC28CD28CF288817D028881325
:1001A0000800FB00F901FA01E82879087B078400C0
:1001B0000A128A1103200A128A110A128A1136239E
:1001C0000A128A110130F9070318FA0A0030FA07F7
:1001D00079087B0784000A128A1103200A128A1107
:1001E000003A031DF428F528D5280800F401F5018C
:1001F000701CFB28FC2802297208F4070318F50A72
:100200007308F50701300310F20DF30DFF3E031DD7
:10021000032901300310F10CF00CFF3E031D0A29E5
:1002200070087104031D15291629F8287508F100B6
:100230007408F00008000F307605F80000307705EC
:10024000F900760E0F39F000770EF039F004770ED2
:100250000F39F100F030F11D0030F1040A30F200E6
:100260000030F3000A128A11F6200A128A11780867
:100270007007F60079080318790A7107F70008007B
:100280000A128A1175200A128A1183160313911516
:100290000A128A1175200A128A1183120313130895
:1002A000F200F3017208F4007308F5000A128A11D3
:1002B00075200A128A1170087104031960296429D3
:1002C00083160313911667298316031391121116CF
:1002D0007508F1007408F00008000A30F0000030E2
:1002E000F1007A08F3007908F2000A128A119523C6
:1002F0000A128A117008FB007108FC00FB0EFC0E4C
:10030000F030FC057B080F39FC04F030FB050A30A7
:10031000F0000030F1007A08F3007908F2000A12C8
:100320008A11DD220A128A1170087B07F900710810
:100330000318710A7C07FA0008000030FC00003046
:10034000FB000030FA000030F900701CA829A92930
:10035000C0297408F907750803110318013E031931
:10036000B229FA07760803110318013E0319B929C7
:10037000FB07770803110318013E0319C029FC0786
:100380000130F8000310F40DF50DF60DF70DF80B24
:10039000C22901300310F30CF20CF10CF00CFF3EFB
:1003A000031DCA297308720471047004031DD9293E
:1003B000DA29A5297C08F3007B08F2007A08F1000D
:1003C0007908F0000800F7007703031DE829E92900
:1003D0000C2A74087F3EF5007508FA007A08F500CB
:1003E00004300310F50CFF3E031DF1297508F600DB
:1003F0007608F8007A080F39F5007508F9007808D2
:100400000A128A1195200A128A1179080A128A1191
:1004100095200A128A11342A02307706031D112A08
:10042000122A342A7408BF3EF5007508FA007A08CB
:10043000F50004300310F50CFF3E031D1A2A750861
:10044000F6007608F8007A080F39F5007508F9000B
:1004500078080A128A1195200A128A1179080A125C
:100460008A1195200A128A11080083160313871532
:100470000716283083120313940083160313910187
:10048000831203132D08B1002E08B2002F08B30009
:100490003008B40002300310B10DB20DB30DB40D2D
:1004A000FF3E031D4B2A3408F3003308F2003208E4
:1004B000F1003108F0000030F7000030F6000030A5
:1004C000F5006430F4000A128A119D210A128A1183
:1004D000730883120313A3007208A2007108A1001D
:1004E0007008A0000130A7003130A6002D30A50013
:1004F0000030A4000A128A11FC230A128A11831206
:1005000003132008FF3E8316031393009401080091
:1005100000300A128A11AF200A128A1103300A121F
:100520008A1195200A128A112130F5007630F400E4
:10053000F40B982AF50B982A000003300A128A114E
:1005400095200A128A114830F5006C30F400F40B43
:10055000A72AF50BA72A000003300A128A1195205A
:100560000A128A1102300A128A1195200A128A117F
:1005700002300A128A1195200A128A1108300A12D2
:100580008A1195200A128A1100300A128A119520C8
:100590000A128A110C300A128A1195200A128A1145
:1005A00000300A128A1195200A128A1106300A12A6
:1005B0008A1195200A128A110800F601F31FE12A18
:1005C000E22AE92AF209F309F20A0319F30AF60109
:1005D000F60AF11FEC2AED2AF22AF009F109F00AD5
:1005E0000319F10A700871040319F72AF82A272B56
:1005F000F501F50A062B01300310F00DF10DFF3E59
:10060000031DFC2A0130F4007408F507F11F092BC3
:100610000A2BFB2A71087302031D102B700872024B
:10062000031C132B142B1A2B7008F2027108031CE5
:10063000F303F30201300310F10CF00CFF3E031D35
:100640001B2B0130F502031D262B272B0A2B7608C6
:1006500003192B2B2C2B312BF209F309F20A031966
:10066000F30A7308F1007208F0000800F40074083F
:100670000F39F1007108F2007408F039F1007108C7
:10068000F3008312031308157308F10004300310FC
:10069000F10CFF3E031D472B71080A128A11AF208F
:1006A0000A128A118312031388153330F500823041
:1006B000F6000000FF30F5070318F60AFF30F607D2
:1006C0007608803AFF0080307F02031D692B0130DD
:1006D0007502031C6C2B6D2B592B8312031388118D
:1006E00072080A128A11AF200A128A1183120313A8
:1006F00088153330F7008230F8000000FF30F7072C
:100700000318F80AFF30F8077808803AFF008030B5
:100710007F02031D8D2B01307702031C902B912B40
:100720007D2B8312031388110800F601F11F992B0A
:100730009A2BA12BF009F109F00A0319F10AF6012D
:10074000F60AF31FA42BA52BAE2BF209F309F20A2C
:100750000319F30A0130F4007408F606F701F801F2
:10076000700871040319B52BB62BED2BF501F50AB2
:10077000C42B01300310F00DF10DFF3E031DBA2B09
:100780000130F4007408F507F11FC72BC82BB92BF3
:1007900001300310F70DF80DFF3E031DC92B710842
:1007A0007302031DD52B70087202031CD82BD92BA2
:1007B000E02B7008F2027108031CF303F3027714B4
:1007C00001300310F10CF00CFF3E031DE12B013052
:1007D000F502031DEC2BED2BC82B76080319F12B2A
:1007E000F22BF72BF709F809F70A0319F80A78082A
:1007F000F1007708F0000800003083120313AB000B
:100800000030AA000030A9000030A800230822040C
:100810002104200403190D2C0E2C5B2CAC01AC0A16
:100820001E2C0130FD000310A00DA10DA20DA30D83
:10083000FD0B132C0130FD007D08AC07A31F212CFC
:10084000222C112C0130FD000310A80DA90DAA0DBA
:10085000AB0DFD0B242C23082702031D392C220885
:100860002602031D392C21082502031D392C2008DE
:100870002402031C3C2C3D2C4C2C2008A4022108F3
:10088000031C210FA5022208031C220FA602230825
:10089000031C230FA702281401300310A30CA20C81
:1008A000A10CA00CFF3E031D4D2C0130AC02031D1A
:1008B0005A2C5B2C222C2B08A3002A08A200290802
:1008C000A1002808A00008000A128A1140200A127C
:1008D0008A11D03083120313A0000030A1000A1245
:1008E0008A1152200A128A11003083120313A000C9
:1008F000A1000A128A1152200A128A1183120313CC
:100900004F08FA004E08F9000A128A116D210A12E6
:100910008A117A0883120313A1007908A0000A1231
:100920008A1152200A128A11831203134D08FA0009
:100930004C08F9000A128A116D210A128A117A08EC
:1009400083120313A1007908A0000A128A11522011
:100950000A128A11831203134B08FA004A08F9009D
:100960000A128A116D210A128A117A08831203135E
:10097000A1007908A0000A128A1152200A128A11D5
:10098000013083120313A0000030A1000A128A1163
:1009900052200A128A11831203134908FA004808E8
:1009A000F9000A128A116D210A128A117A0883123B
:1009B0000313A1007908A0000A128A1152200A121A
:1009C0008A11831203134708FA004608F9000A1235
:1009D0008A116D210A128A117A0883120313A10069
:1009E0007908A0000A128A1152200A128A11831271
:1009F00003134508FA004408F9000A128A116D2110
:100A00000A128A117A0883120313A1007908A00040
:100A10000A128A1152200A128A110A128A114920D6
:100A20000A128A1108000A128A1140200A128A1139
:100A3000D03083120313A0000030A1000A128A11E3
:100A400052200A128A11003083120313A000A10061
:100A50000A128A1152200A128A110A128A11492096
:100A60000A128A110A128A1140200A128A11D13000
:100A700083120313A0000030A1000A128A11522031
:100A80000A128A110130F0000030F1000A128A11B6
:100A900040210A128A117108F7007008F6000A1244
:100AA0008A111B210A128A11770883120313CF00BF
:100AB0007608CE000130F0000030F1000A128A11F1
:100AC00040210A128A117108F7007008F6000A1214
:100AD0008A111B210A128A11770883120313CD0091
:100AE0007608CC000130F0000030F1000A128A11C3
:100AF00040210A128A117108F7007008F6000A12E4
:100B00008A111B210A128A11770883120313CB0062
:100B10007608CA000130F0000030F1000A128A1194
:100B200040210A128A110130F0000030F1000A124F
:100B30008A1140210A128A117108F7007008F60024
:100B40000A128A111B210A128A11770883120313D1
:100B5000C9007608C8000130F0000030F1000A1228
:100B60008A1140210A128A117108F7007008F600F4
:100B70000A128A111B210A128A11770883120313A1
:100B8000C7007608C6000130F0000030F1000A12FC
:100B90008A1140210A128A117108F7007008F600C4
:100BA0000A128A111B210A128A1177088312031371
:100BB000C5007608C4000A128A1149200A128A1157
:100BC0000A128A1140200A128A11D13083120313AB
:100BD000A0000030A1000A128A1152200A128A11C4
:100BE0000130F0000030F1000A128A1140210A128F
:100BF0008A110A128A1149200A128A1108008316E2
:100C0000031388010A128A1188220A128A110030FD
:100C100083120313B0000030AF000030AE00643028
:100C2000AD000A128A1135220A128A110A128A119B
:100C300064240A128A110A128A1168200A128A117F
:100C4000F401F40A01300A128A11E3210A128A110E
:100C500012300A128A11D1200A128A11F401F40A00
:100C600002300A128A11E3210A128A1101300A1293
:100C70008A11D1200A128A11273083120313B70078
:100C80000D30B6002530B500B50B442EB60B442E02
:100C9000B70B442E4B2E0A128A1113250A128A1101
:100CA0000A30F0000030F100831203134F08F30004
:100CB0004E08F2000A128A11DD220A128A11700807
:100CC00083120313B5003508B8000A30F000003075
:100CD000F1004F08F3004E08F2000A128A11952322
:100CE0000A128A11700883120313B5003508B9007F
:100CF0000A30F0000030F1004D08F3004C08F2001B
:100D00000A128A11DD220A128A1170088312031353
:100D1000B5003508BA000A30F0000030F1004D0887
:100D2000F3004C08F2000A128A1195230A128A1164
:100D3000700883120313B5003508BB000A30F000B9
:100D40000030F1004B08F3004A08F2000A128A1141
:100D5000DD220A128A11700883120313B5003508C8
:100D6000BC000A30F0000030F1004B08F3004A08E4
:100D7000F2000A128A1195230A128A11700883124E
:100D80000313B5003508BD000A30F0000030F10053
:100D90004908F3004808F2000A128A11DD220A12FB
:100DA0008A11700883120313B5003508BE000A309B
:100DB000F0000030F1004908F3004808F2000A1280
:100DC0008A1195230A128A11700883120313B50041
:100DD0003508BF000A30F0000030F1004708F3008A
:100DE0004608F2000A128A11DD220A128A117008DE
:100DF00083120313B5003508C0000A30F00000303C
:100E0000F1004708F3004608F2000A128A11952300
:100E10000A128A11700883120313B5003508C10045
:100E20000A30F0000030F1004508F3004408F200F9
:100E30000A128A11DD220A128A1170088312031322
:100E4000B5003508C2000A30F0000030F100450856
:100E5000F3004408F2000A128A1195230A128A113B
:100E6000700883120313B5003508C3000A128A11F3
:100E700068200A128A11F401F40A01300A128A1158
:100E8000E3210A128A1121300A128A11D1200A1292
:100E90008A11831203133D08303E0A128A11362349
:100EA0000A128A11831203133C08303E0A128A1177
:100EB00036230A128A113A300A128A1136230A128C
:100EC0008A11831203133B08303E0A128A1136231B
:100ED0000A128A11831203133A08303E0A128A1149
:100EE00036230A128A113A300A128A1136230A125C
:100EF0008A11831203133908303E0A128A113623ED
:100F00000A128A11831203133808303E0A128A111A
:100F100036230A128A11F401F40A02300A128A11E5
:100F2000E3210A128A1128300A128A11D1200A12EA
:100F30008A11831203133F08303E0A128A113623A6
:100F40000A128A11831203133E08303E0A128A11D4
:100F500036230A128A113A300A128A1136230A12EB
:100F60008A11831203134108303E0A128A11362374
:100F70000A128A11831203134008303E0A128A11A2
:100F800036230A128A113A300A128A1136230A12BB
:100F90008A11831203134308303E0A128A11362342
:100FA0000A128A11831203134208303E0A128A1170
:100FB00036230A128A110D3083120313B700AF30A3
:100FC000B600B530B500B50BE32FB60BE32FB70B6A
:100FD000E32FEA2F4B2E0A128A1100288313503078
:100FE000FD000030FE005C30FF00443084000A1237
:100FF0008A1186200A128A1183010A128A11FF2D92
:08400000FF3FFF3FFF3FFF3FC0
:02400E00723FFF
:00000001FF
